{
  "contractName": "SpecialDelegate",
  "abi": [
    {
      "inputs": [
        {
          "internalType": "uint256",
          "name": "_totalSupply",
          "type": "uint256"
        }
      ],
      "stateMutability": "nonpayable",
      "type": "constructor"
    },
    {
      "anonymous": false,
      "inputs": [
        {
          "indexed": true,
          "internalType": "address",
          "name": "owner",
          "type": "address"
        },
        {
          "indexed": true,
          "internalType": "address",
          "name": "spender",
          "type": "address"
        },
        {
          "indexed": false,
          "internalType": "uint256",
          "name": "value",
          "type": "uint256"
        }
      ],
      "name": "Approval",
      "type": "event"
    },
    {
      "anonymous": false,
      "inputs": [
        {
          "indexed": true,
          "internalType": "uint256",
          "name": "totalSupply",
          "type": "uint256"
        },
        {
          "indexed": true,
          "internalType": "address",
          "name": "currentOwner",
          "type": "address"
        }
      ],
      "name": "DelegateTokensMinted",
      "type": "event"
    },
    {
      "anonymous": false,
      "inputs": [
        {
          "indexed": true,
          "internalType": "uint256",
          "name": "amountGiven",
          "type": "uint256"
        },
        {
          "indexed": true,
          "internalType": "address",
          "name": "sender",
          "type": "address"
        }
      ],
      "name": "DelegationGiven",
      "type": "event"
    },
    {
      "anonymous": false,
      "inputs": [
        {
          "indexed": true,
          "internalType": "uint256",
          "name": "errorCode",
          "type": "uint256"
        }
      ],
      "name": "Error",
      "type": "event"
    },
    {
      "anonymous": false,
      "inputs": [
        {
          "indexed": true,
          "internalType": "address",
          "name": "from",
          "type": "address"
        },
        {
          "indexed": true,
          "internalType": "address",
          "name": "to",
          "type": "address"
        },
        {
          "indexed": false,
          "internalType": "uint256",
          "name": "value",
          "type": "uint256"
        }
      ],
      "name": "Transfer",
      "type": "event"
    },
    {
      "inputs": [
        {
          "internalType": "address",
          "name": "owner",
          "type": "address"
        },
        {
          "internalType": "address",
          "name": "spender",
          "type": "address"
        }
      ],
      "name": "allowance",
      "outputs": [
        {
          "internalType": "uint256",
          "name": "",
          "type": "uint256"
        }
      ],
      "stateMutability": "view",
      "type": "function"
    },
    {
      "inputs": [
        {
          "internalType": "address",
          "name": "spender",
          "type": "address"
        },
        {
          "internalType": "uint256",
          "name": "amount",
          "type": "uint256"
        }
      ],
      "name": "approve",
      "outputs": [
        {
          "internalType": "bool",
          "name": "",
          "type": "bool"
        }
      ],
      "stateMutability": "nonpayable",
      "type": "function"
    },
    {
      "inputs": [
        {
          "internalType": "address",
          "name": "account",
          "type": "address"
        }
      ],
      "name": "balanceOf",
      "outputs": [
        {
          "internalType": "uint256",
          "name": "",
          "type": "uint256"
        }
      ],
      "stateMutability": "view",
      "type": "function"
    },
    {
      "inputs": [
        {
          "internalType": "address",
          "name": "",
          "type": "address"
        }
      ],
      "name": "daoMemberTokenAmounts",
      "outputs": [
        {
          "internalType": "uint256",
          "name": "",
          "type": "uint256"
        }
      ],
      "stateMutability": "view",
      "type": "function"
    },
    {
      "inputs": [
        {
          "internalType": "uint256",
          "name": "",
          "type": "uint256"
        }
      ],
      "name": "daoMembers",
      "outputs": [
        {
          "internalType": "address",
          "name": "",
          "type": "address"
        }
      ],
      "stateMutability": "view",
      "type": "function"
    },
    {
      "inputs": [],
      "name": "decimals",
      "outputs": [
        {
          "internalType": "uint8",
          "name": "",
          "type": "uint8"
        }
      ],
      "stateMutability": "view",
      "type": "function"
    },
    {
      "inputs": [
        {
          "internalType": "address",
          "name": "spender",
          "type": "address"
        },
        {
          "internalType": "uint256",
          "name": "subtractedValue",
          "type": "uint256"
        }
      ],
      "name": "decreaseAllowance",
      "outputs": [
        {
          "internalType": "bool",
          "name": "",
          "type": "bool"
        }
      ],
      "stateMutability": "nonpayable",
      "type": "function"
    },
    {
      "inputs": [
        {
          "internalType": "address",
          "name": "",
          "type": "address"
        }
      ],
      "name": "delegateAmounts",
      "outputs": [
        {
          "internalType": "uint256",
          "name": "",
          "type": "uint256"
        }
      ],
      "stateMutability": "view",
      "type": "function"
    },
    {
      "inputs": [
        {
          "internalType": "address",
          "name": "",
          "type": "address"
        }
      ],
      "name": "delegates",
      "outputs": [
        {
          "internalType": "uint256",
          "name": "tokensDelegated",
          "type": "uint256"
        },
        {
          "internalType": "uint256",
          "name": "timesVoted",
          "type": "uint256"
        },
        {
          "internalType": "bool",
          "name": "isActive",
          "type": "bool"
        },
        {
          "internalType": "address",
          "name": "_address",
          "type": "address"
        }
      ],
      "stateMutability": "view",
      "type": "function"
    },
    {
      "inputs": [
        {
          "internalType": "address",
          "name": "spender",
          "type": "address"
        },
        {
          "internalType": "uint256",
          "name": "addedValue",
          "type": "uint256"
        }
      ],
      "name": "increaseAllowance",
      "outputs": [
        {
          "internalType": "bool",
          "name": "",
          "type": "bool"
        }
      ],
      "stateMutability": "nonpayable",
      "type": "function"
    },
    {
      "inputs": [
        {
          "internalType": "address",
          "name": "",
          "type": "address"
        }
      ],
      "name": "isDelegate",
      "outputs": [
        {
          "internalType": "bool",
          "name": "",
          "type": "bool"
        }
      ],
      "stateMutability": "view",
      "type": "function"
    },
    {
      "inputs": [],
      "name": "name",
      "outputs": [
        {
          "internalType": "string",
          "name": "",
          "type": "string"
        }
      ],
      "stateMutability": "view",
      "type": "function"
    },
    {
      "inputs": [],
      "name": "symbol",
      "outputs": [
        {
          "internalType": "string",
          "name": "",
          "type": "string"
        }
      ],
      "stateMutability": "view",
      "type": "function"
    },
    {
      "inputs": [],
      "name": "totalSupply",
      "outputs": [
        {
          "internalType": "uint256",
          "name": "",
          "type": "uint256"
        }
      ],
      "stateMutability": "view",
      "type": "function"
    },
    {
      "inputs": [
        {
          "internalType": "address",
          "name": "recipient",
          "type": "address"
        },
        {
          "internalType": "uint256",
          "name": "amount",
          "type": "uint256"
        }
      ],
      "name": "transfer",
      "outputs": [
        {
          "internalType": "bool",
          "name": "",
          "type": "bool"
        }
      ],
      "stateMutability": "nonpayable",
      "type": "function"
    },
    {
      "inputs": [
        {
          "internalType": "address",
          "name": "sender",
          "type": "address"
        },
        {
          "internalType": "address",
          "name": "recipient",
          "type": "address"
        },
        {
          "internalType": "uint256",
          "name": "amount",
          "type": "uint256"
        }
      ],
      "name": "transferFrom",
      "outputs": [
        {
          "internalType": "bool",
          "name": "",
          "type": "bool"
        }
      ],
      "stateMutability": "nonpayable",
      "type": "function"
    },
    {
      "inputs": [
        {
          "internalType": "address payable",
          "name": "_delegate",
          "type": "address"
        },
        {
          "internalType": "uint256",
          "name": "_amount",
          "type": "uint256"
        }
      ],
      "name": "giveDelegation",
      "outputs": [],
      "stateMutability": "nonpayable",
      "type": "function"
    },
    {
      "inputs": [
        {
          "internalType": "uint256",
          "name": "amount",
          "type": "uint256"
        },
        {
          "internalType": "address",
          "name": "_to",
          "type": "address"
        }
      ],
      "name": "transferDelegation",
      "outputs": [],
      "stateMutability": "nonpayable",
      "type": "function"
    },
    {
      "inputs": [
        {
          "internalType": "bool",
          "name": "didVote",
          "type": "bool"
        }
      ],
      "name": "updateVotes",
      "outputs": [],
      "stateMutability": "nonpayable",
      "type": "function"
    }
  ],
  "bytecode": "0x608060405260036005553480156200001657600080fd5b5060405162001eba38038062001eba83398181016040528101906200003c9190620003d4565b6040518060400160405280600f81526020017f5370656369616c44656c656761746500000000000000000000000000000000008152506040518060400160405280600381526020017f53504400000000000000000000000000000000000000000000000000000000008152508160039080519060200190620000c09291906200030d565b508060049080519060200190620000d99291906200030d565b505050620000ee33826200018a60201b60201c565b33600860006101000a81548173ffffffffffffffffffffffffffffffffffffffff021916908373ffffffffffffffffffffffffffffffffffffffff1602179055503373ffffffffffffffffffffffffffffffffffffffff16817f86296e75b8a2e747a6a9e88b3c82dff65a58303e3c98402ba75f9940e0d72e3c60405160405180910390a36000600781905550600060068190555050620005b8565b600073ffffffffffffffffffffffffffffffffffffffff168273ffffffffffffffffffffffffffffffffffffffff161415620001fd576040517f08c379a0000000000000000000000000000000000000000000000000000000008152600401620001f49062000453565b60405180910390fd5b62000211600083836200030360201b60201c565b8060026000828254620002259190620004a3565b92505081905550806000808473ffffffffffffffffffffffffffffffffffffffff1673ffffffffffffffffffffffffffffffffffffffff16815260200190815260200160002060008282546200027c9190620004a3565b925050819055508173ffffffffffffffffffffffffffffffffffffffff16600073ffffffffffffffffffffffffffffffffffffffff167fddf252ad1be2c89b69c2b068fc378daa952ba7f163c4a11628f55a4df523b3ef83604051620002e3919062000475565b60405180910390a3620002ff600083836200030860201b60201c565b5050565b505050565b505050565b8280546200031b906200050a565b90600052602060002090601f0160209004810192826200033f57600085556200038b565b82601f106200035a57805160ff19168380011785556200038b565b828001600101855582156200038b579182015b828111156200038a5782518255916020019190600101906200036d565b5b5090506200039a91906200039e565b5090565b5b80821115620003b95760008160009055506001016200039f565b5090565b600081519050620003ce816200059e565b92915050565b600060208284031215620003e757600080fd5b6000620003f784828501620003bd565b91505092915050565b60006200040f601f8362000492565b91507f45524332303a206d696e7420746f20746865207a65726f2061646472657373006000830152602082019050919050565b6200044d8162000500565b82525050565b600060208201905081810360008301526200046e8162000400565b9050919050565b60006020820190506200048c600083018462000442565b92915050565b600082825260208201905092915050565b6000620004b08262000500565b9150620004bd8362000500565b9250827fffffffffffffffffffffffffffffffffffffffffffffffffffffffffffffffff03821115620004f557620004f462000540565b5b828201905092915050565b6000819050919050565b600060028204905060018216806200052357607f821691505b602082108114156200053a57620005396200056f565b5b50919050565b7f4e487b7100000000000000000000000000000000000000000000000000000000600052601160045260246000fd5b7f4e487b7100000000000000000000000000000000000000000000000000000000600052602260045260246000fd5b620005a98162000500565b8114620005b557600080fd5b50565b6118f280620005c86000396000f3fe608060405234801561001057600080fd5b50600436106101215760003560e01c8063587cde1e116100ad5780639d51173f116100715780639d51173f14610359578063a093d28614610389578063a457c2d7146103a5578063a9059cbb146103d5578063dd62ed3e1461040557610121565b8063587cde1e1461027857806358dbdf13146102ab57806370a08231146102db57806395d89b411461030b57806398ffcbcf1461032957610121565b806323b872dd116100f457806323b872dd146101c2578063313ce567146101f257806338215d5c14610210578063395093511461022c5780634ac928001461025c57610121565b806306fdde03146101265780630777962714610144578063095ea7b31461017457806318160ddd146101a4575b600080fd5b61012e610435565b60405161013b9190611516565b60405180910390f35b61015e60048036038101906101599190610f81565b6104c7565b60405161016b91906114fb565b60405180910390f35b61018e60048036038101906101899190611071565b6104e7565b60405161019b91906114fb565b60405180910390f35b6101ac610505565b6040516101b99190611638565b60405180910390f35b6101dc60048036038101906101d79190611022565b61050f565b6040516101e991906114fb565b60405180910390f35b6101fa610607565b6040516102079190611698565b60405180910390f35b61022a60048036038101906102259190610faa565b610610565b005b61024660048036038101906102419190611071565b610662565b60405161025391906114fb565b60405180910390f35b610276600480360381019061027191906110ff565b61070e565b005b610292600480360381019061028d9190610f81565b6107a2565b6040516102a29493929190611653565b60405180910390f35b6102c560048036038101906102c09190610f81565b6107ff565b6040516102d29190611638565b60405180910390f35b6102f560048036038101906102f09190610f81565b610817565b6040516103029190611638565b60405180910390f35b61031361085f565b6040516103209190611516565b60405180910390f35b610343600480360381019061033e9190610f81565b6108f1565b6040516103509190611638565b60405180910390f35b610373600480360381019061036e91906110d6565b610909565b60405161038091906114e0565b60405180910390f35b6103a3600480360381019061039e91906110ad565b61093c565b005b6103bf60048036038101906103ba9190611071565b61093f565b6040516103cc91906114fb565b60405180910390f35b6103ef60048036038101906103ea9190611071565b610a2a565b6040516103fc91906114fb565b60405180910390f35b61041f600480360381019061041a9190610fe6565b610a48565b60405161042c9190611638565b60405180910390f35b606060038054610444906117bf565b80601f0160208091040260200160405190810160405280929190818152602001828054610470906117bf565b80156104bd5780601f10610492576101008083540402835291602001916104bd565b820191906000526020600020905b8154815290600101906020018083116104a057829003601f168201915b5050505050905090565b600c6020528060005260406000206000915054906101000a900460ff1681565b60006104fb6104f4610acf565b8484610ad7565b6001905092915050565b6000600254905090565b600061051c848484610ca2565b6000600160008673ffffffffffffffffffffffffffffffffffffffff1673ffffffffffffffffffffffffffffffffffffffff1681526020019081526020016000206000610567610acf565b73ffffffffffffffffffffffffffffffffffffffff1673ffffffffffffffffffffffffffffffffffffffff168152602001908152602001600020549050828110156105e7576040517f08c379a00000000000000000000000000000000000000000000000000000000081526004016105de906115b8565b60405180910390fd5b6105fb856105f3610acf565b858403610ad7565b60019150509392505050565b60006012905090565b8080600a60003373ffffffffffffffffffffffffffffffffffffffff1673ffffffffffffffffffffffffffffffffffffffff16815260200190815260200160002054101561065d57600080fd5b505050565b600061070461066f610acf565b84846001600061067d610acf565b73ffffffffffffffffffffffffffffffffffffffff1673ffffffffffffffffffffffffffffffffffffffff16815260200190815260200160002060008873ffffffffffffffffffffffffffffffffffffffff1673ffffffffffffffffffffffffffffffffffffffff168152602001908152602001600020546106ff91906116cf565b610ad7565b6001905092915050565b600860009054906101000a900473ffffffffffffffffffffffffffffffffffffffff1673ffffffffffffffffffffffffffffffffffffffff163373ffffffffffffffffffffffffffffffffffffffff161461079e576040517f08c379a000000000000000000000000000000000000000000000000000000000815260040161079590611578565b60405180910390fd5b5050565b600b6020528060005260406000206000915090508060000154908060010154908060020160009054906101000a900460ff16908060020160019054906101000a900473ffffffffffffffffffffffffffffffffffffffff16905084565b600d6020528060005260406000206000915090505481565b60008060008373ffffffffffffffffffffffffffffffffffffffff1673ffffffffffffffffffffffffffffffffffffffff168152602001908152602001600020549050919050565b60606004805461086e906117bf565b80601f016020809104026020016040519081016040528092919081815260200182805461089a906117bf565b80156108e75780601f106108bc576101008083540402835291602001916108e7565b820191906000526020600020905b8154815290600101906020018083116108ca57829003601f168201915b5050505050905090565b600a6020528060005260406000206000915090505481565b60096020528060005260406000206000915054906101000a900473ffffffffffffffffffffffffffffffffffffffff1681565b50565b6000806001600061094e610acf565b73ffffffffffffffffffffffffffffffffffffffff1673ffffffffffffffffffffffffffffffffffffffff16815260200190815260200160002060008573ffffffffffffffffffffffffffffffffffffffff1673ffffffffffffffffffffffffffffffffffffffff16815260200190815260200160002054905082811015610a0b576040517f08c379a0000000000000000000000000000000000000000000000000000000008152600401610a0290611618565b60405180910390fd5b610a1f610a16610acf565b85858403610ad7565b600191505092915050565b6000610a3e610a37610acf565b8484610ca2565b6001905092915050565b6000600160008473ffffffffffffffffffffffffffffffffffffffff1673ffffffffffffffffffffffffffffffffffffffff16815260200190815260200160002060008373ffffffffffffffffffffffffffffffffffffffff1673ffffffffffffffffffffffffffffffffffffffff16815260200190815260200160002054905092915050565b600033905090565b600073ffffffffffffffffffffffffffffffffffffffff168373ffffffffffffffffffffffffffffffffffffffff161415610b47576040517f08c379a0000000000000000000000000000000000000000000000000000000008152600401610b3e906115f8565b60405180910390fd5b600073ffffffffffffffffffffffffffffffffffffffff168273ffffffffffffffffffffffffffffffffffffffff161415610bb7576040517f08c379a0000000000000000000000000000000000000000000000000000000008152600401610bae90611558565b60405180910390fd5b80600160008573ffffffffffffffffffffffffffffffffffffffff1673ffffffffffffffffffffffffffffffffffffffff16815260200190815260200160002060008473ffffffffffffffffffffffffffffffffffffffff1673ffffffffffffffffffffffffffffffffffffffff168152602001908152602001600020819055508173ffffffffffffffffffffffffffffffffffffffff168373ffffffffffffffffffffffffffffffffffffffff167f8c5be1e5ebec7d5bd14f71427d1e84f3dd0314c0f7b2291e5b200ac8c7c3b92583604051610c959190611638565b60405180910390a3505050565b600073ffffffffffffffffffffffffffffffffffffffff168373ffffffffffffffffffffffffffffffffffffffff161415610d12576040517f08c379a0000000000000000000000000000000000000000000000000000000008152600401610d09906115d8565b60405180910390fd5b600073ffffffffffffffffffffffffffffffffffffffff168273ffffffffffffffffffffffffffffffffffffffff161415610d82576040517f08c379a0000000000000000000000000000000000000000000000000000000008152600401610d7990611538565b60405180910390fd5b610d8d838383610f23565b60008060008573ffffffffffffffffffffffffffffffffffffffff1673ffffffffffffffffffffffffffffffffffffffff16815260200190815260200160002054905081811015610e13576040517f08c379a0000000000000000000000000000000000000000000000000000000008152600401610e0a90611598565b60405180910390fd5b8181036000808673ffffffffffffffffffffffffffffffffffffffff1673ffffffffffffffffffffffffffffffffffffffff16815260200190815260200160002081905550816000808573ffffffffffffffffffffffffffffffffffffffff1673ffffffffffffffffffffffffffffffffffffffff1681526020019081526020016000206000828254610ea691906116cf565b925050819055508273ffffffffffffffffffffffffffffffffffffffff168473ffffffffffffffffffffffffffffffffffffffff167fddf252ad1be2c89b69c2b068fc378daa952ba7f163c4a11628f55a4df523b3ef84604051610f0a9190611638565b60405180910390a3610f1d848484610f28565b50505050565b505050565b505050565b600081359050610f3c81611860565b92915050565b600081359050610f5181611877565b92915050565b600081359050610f668161188e565b92915050565b600081359050610f7b816118a5565b92915050565b600060208284031215610f9357600080fd5b6000610fa184828501610f2d565b91505092915050565b60008060408385031215610fbd57600080fd5b6000610fcb85828601610f42565b9250506020610fdc85828601610f6c565b9150509250929050565b60008060408385031215610ff957600080fd5b600061100785828601610f2d565b925050602061101885828601610f2d565b9150509250929050565b60008060006060848603121561103757600080fd5b600061104586828701610f2d565b935050602061105686828701610f2d565b925050604061106786828701610f6c565b9150509250925092565b6000806040838503121561108457600080fd5b600061109285828601610f2d565b92505060206110a385828601610f6c565b9150509250929050565b6000602082840312156110bf57600080fd5b60006110cd84828501610f57565b91505092915050565b6000602082840312156110e857600080fd5b60006110f684828501610f6c565b91505092915050565b6000806040838503121561111257600080fd5b600061112085828601610f6c565b925050602061113185828601610f2d565b9150509250929050565b61114481611725565b82525050565b61115381611749565b82525050565b6000611164826116b3565b61116e81856116be565b935061117e81856020860161178c565b6111878161184f565b840191505092915050565b600061119f6023836116be565b91507f45524332303a207472616e7366657220746f20746865207a65726f206164647260008301527f65737300000000000000000000000000000000000000000000000000000000006020830152604082019050919050565b60006112056022836116be565b91507f45524332303a20617070726f766520746f20746865207a65726f20616464726560008301527f73730000000000000000000000000000000000000000000000000000000000006020830152604082019050919050565b600061126b6031836116be565b91507f4f6e6c7920746865206f776e6572206f6620746865736520746f6b656e73206360008301527f616e206d616b6520746869732063616c6c0000000000000000000000000000006020830152604082019050919050565b60006112d16026836116be565b91507f45524332303a207472616e7366657220616d6f756e742065786365656473206260008301527f616c616e636500000000000000000000000000000000000000000000000000006020830152604082019050919050565b60006113376028836116be565b91507f45524332303a207472616e7366657220616d6f756e742065786365656473206160008301527f6c6c6f77616e63650000000000000000000000000000000000000000000000006020830152604082019050919050565b600061139d6025836116be565b91507f45524332303a207472616e736665722066726f6d20746865207a65726f20616460008301527f64726573730000000000000000000000000000000000000000000000000000006020830152604082019050919050565b60006114036024836116be565b91507f45524332303a20617070726f76652066726f6d20746865207a65726f2061646460008301527f72657373000000000000000000000000000000000000000000000000000000006020830152604082019050919050565b60006114696025836116be565b91507f45524332303a2064656372656173656420616c6c6f77616e63652062656c6f7760008301527f207a65726f0000000000000000000000000000000000000000000000000000006020830152604082019050919050565b6114cb81611775565b82525050565b6114da8161177f565b82525050565b60006020820190506114f5600083018461113b565b92915050565b6000602082019050611510600083018461114a565b92915050565b600060208201905081810360008301526115308184611159565b905092915050565b6000602082019050818103600083015261155181611192565b9050919050565b60006020820190508181036000830152611571816111f8565b9050919050565b600060208201905081810360008301526115918161125e565b9050919050565b600060208201905081810360008301526115b1816112c4565b9050919050565b600060208201905081810360008301526115d18161132a565b9050919050565b600060208201905081810360008301526115f181611390565b9050919050565b60006020820190508181036000830152611611816113f6565b9050919050565b600060208201905081810360008301526116318161145c565b9050919050565b600060208201905061164d60008301846114c2565b92915050565b600060808201905061166860008301876114c2565b61167560208301866114c2565b611682604083018561114a565b61168f606083018461113b565b95945050505050565b60006020820190506116ad60008301846114d1565b92915050565b600081519050919050565b600082825260208201905092915050565b60006116da82611775565b91506116e583611775565b9250827fffffffffffffffffffffffffffffffffffffffffffffffffffffffffffffffff0382111561171a576117196117f1565b5b828201905092915050565b600061173082611755565b9050919050565b600061174282611755565b9050919050565b60008115159050919050565b600073ffffffffffffffffffffffffffffffffffffffff82169050919050565b6000819050919050565b600060ff82169050919050565b60005b838110156117aa57808201518184015260208101905061178f565b838111156117b9576000848401525b50505050565b600060028204905060018216806117d757607f821691505b602082108114156117eb576117ea611820565b5b50919050565b7f4e487b7100000000000000000000000000000000000000000000000000000000600052601160045260246000fd5b7f4e487b7100000000000000000000000000000000000000000000000000000000600052602260045260246000fd5b6000601f19601f8301169050919050565b61186981611725565b811461187457600080fd5b50565b61188081611737565b811461188b57600080fd5b50565b61189781611749565b81146118a257600080fd5b50565b6118ae81611775565b81146118b957600080fd5b5056fea26469706673582212202698f92fbcde120ea39aefef207f614a100833c33459d3632cad36a330e7c86664736f6c63430008000033",
  "immutableReferences": {},
  "source": "pragma solidity 0.8.0;\nimport \"@openzeppelin/contracts/token/ERC20/ERC20.sol\";\n\ncontract SpecialDelegate is ERC20 {\n/* --------- STORAGE --------- */\n/*\nERROR CODES:\n1 -> DelegationGiven Failed\n2 -> SendTokensBack Failed\n/*\n\n\n/* --------- STORAGE --------- */\n    uint256 minimumThreshold = 3;\n    uint256 selfVoteCount;\n    uint256 totalVoteCount;\n    address currOwner;\n\n\n    mapping(uint256 => address) public daoMembers;\n    mapping(address => uint256) public daoMemberTokenAmounts;\n\n\n    mapping(address => Delegate) public delegates;\n    mapping(address => bool) public isDelegate;\n    mapping(address => uint256) public delegateAmounts; // to keep track of the amount of delegation tokens each delegate has\n\n/* --------- STRUCTS --------- */\n//\n    struct DAOMember {\n        Delegate delegate;\n        uint256 tokenAmount;\n        address _address;\n    }\n\n    struct Delegate {\n        uint256 tokensDelegated; // number of tokens delegated with the DAO member that delegated that amount as the key\n        uint256 timesVoted;\n        bool isActive;\n        address _address;\n    }\n\n/* --------- EVENTS --------- */\n\n    event DelegateTokensMinted( uint256 indexed totalSupply,  address indexed currentOwner);\n    event DelegationGiven(uint256 indexed amountGiven, address indexed sender);\n    event Error(uint256 indexed errorCode);\n\n/* --------- MODIFIERS --------- */\n    modifier delegateOnly(address caller) {\n        require(delegates[caller].isActive, \"NOT A DELEGATOR\");\n        _;\n    }\n    modifier hasEnoughTokens(uint256 amount) {\n        require(daoMemberTokenAmounts[msg.sender] >= amount);\n        _;\n    }\n\n    modifier voteLimitReached() {\n        require(selfVoteCount >= totalVoteCount);\n        _;\n    }\n    constructor(uint256 _totalSupply) ERC20(\"SpecialDelegate\", \"SPD\") {\n        _mint(msg.sender, _totalSupply);\n        currOwner = msg.sender;\n        emit DelegateTokensMinted(_totalSupply, msg.sender);\n        totalVoteCount = 0;\n        selfVoteCount = 0;\n    }\n\n\n/* --------- FUNCTIONS --------- */\n\n\n    // DAO member can give tokens to delegate to allow them to vote\n    function giveDelegation(address payable _delegate, uint256 _amount) external hasEnoughTokens(_amount) {\n        // function that allows DAO members to give their tokens to a delegate\n\n        // if a this address is already a Delegate, add to their existing amount of tokens for voting. Else, create a new struct called Delegate and then add the amount that is sent from the caller\n\n        // once the delegate's token amount are updated, actually send the tokens to the delegate address\n\n       // if successful, emit an event that says tokens were delegated and if not then emit and Error event\n    }\n\n\n\n    // Send tokens back from delegate to DAO member\n    function sendTokensBackToMember() private voteLimitReached {\n        // sendsTokens back to DAO member from delegate that has them\n    }\n\n    function transferDelegation(uint256 amount, address _to) public {\n        require(msg.sender == currOwner, \"Only the owner of these tokens can make this call\");\n        // transfersDelegation to another delegate if necessary?\n\n    }\n\n    function updateVotes(bool didVote) public {\n        // udpates the number of votes that have been executed on chain and also checks if tokens need to be returned\n        // checkIfShouldReturn();\n    }\n    function checkIfShouldReturn()  internal {\n       // check if the tokens should go back to the DAO member if the conditions for a delegate to need to release their tokens are met\n    }\n\n\n}",
  "sourcePath": "/Users/michaeldaigler/Documents/Consensys-Academy/BlockchainDevBootcamp/final-project/blockchain-developer-bootcamp-final-project/contracts/SpecialDelegateSketch.sol",
  "compiler": {
    "name": "solc",
    "version": "0.8.0+commit.c7dfd78e.Emscripten.clang"
  },
  "schemaVersion": "3.4.1",
  "updatedAt": "2021-09-20T00:58:10.209Z",
  "devdoc": {
    "kind": "dev",
    "methods": {
      "allowance(address,address)": {
        "details": "See {IERC20-allowance}."
      },
      "approve(address,uint256)": {
        "details": "See {IERC20-approve}. Requirements: - `spender` cannot be the zero address."
      },
      "balanceOf(address)": {
        "details": "See {IERC20-balanceOf}."
      },
      "decimals()": {
        "details": "Returns the number of decimals used to get its user representation. For example, if `decimals` equals `2`, a balance of `505` tokens should be displayed to a user as `5.05` (`505 / 10 ** 2`). Tokens usually opt for a value of 18, imitating the relationship between Ether and Wei. This is the value {ERC20} uses, unless this function is overridden; NOTE: This information is only used for _display_ purposes: it in no way affects any of the arithmetic of the contract, including {IERC20-balanceOf} and {IERC20-transfer}."
      },
      "decreaseAllowance(address,uint256)": {
        "details": "Atomically decreases the allowance granted to `spender` by the caller. This is an alternative to {approve} that can be used as a mitigation for problems described in {IERC20-approve}. Emits an {Approval} event indicating the updated allowance. Requirements: - `spender` cannot be the zero address. - `spender` must have allowance for the caller of at least `subtractedValue`."
      },
      "increaseAllowance(address,uint256)": {
        "details": "Atomically increases the allowance granted to `spender` by the caller. This is an alternative to {approve} that can be used as a mitigation for problems described in {IERC20-approve}. Emits an {Approval} event indicating the updated allowance. Requirements: - `spender` cannot be the zero address."
      },
      "name()": {
        "details": "Returns the name of the token."
      },
      "symbol()": {
        "details": "Returns the symbol of the token, usually a shorter version of the name."
      },
      "totalSupply()": {
        "details": "See {IERC20-totalSupply}."
      },
      "transfer(address,uint256)": {
        "details": "See {IERC20-transfer}. Requirements: - `recipient` cannot be the zero address. - the caller must have a balance of at least `amount`."
      },
      "transferFrom(address,address,uint256)": {
        "details": "See {IERC20-transferFrom}. Emits an {Approval} event indicating the updated allowance. This is not required by the EIP. See the note at the beginning of {ERC20}. Requirements: - `sender` and `recipient` cannot be the zero address. - `sender` must have a balance of at least `amount`. - the caller must have allowance for ``sender``'s tokens of at least `amount`."
      }
    },
    "version": 1
  },
  "userdoc": {
    "kind": "user",
    "methods": {},
    "version": 1
  }
}